:1000000012C01FC01EC01DC01CC01BC01AC06FC0C4
:1000100018C017C016C015C014C013C012C011C03C
:1000200010C00FC00EC011241FBECFEDCDBF10E019
:10003000A0E6B0E001C01D92AC36B107E1F77BD07D
:100040003FC1DECF5D9BFECF8CB90895882339F088
:10005000813039F0823079F0833041F0089566BF05
:100060000895862F90E09BBD8ABD0895862F90E06D
:1000700099BD88BD08956CBF0895682F809169006F
:10008000882389F480916A00882339F480916B0079
:10009000882399F06230B9F008956093680081E098
:1000A00080936900089580916800D0DF10926B0002
:1000B00010926A001092690008956F3F69F781E01D
:1000C00080936B00089581E080936A000895982FD3
:1000D0005D9BFECF8FEF8CB95D9BFECF82E08CB92C
:1000E0005D9BFECF9CB95D9BFECF6CB908951F92BE
:1000F0000F920FB60F9211242F933F934F935F935C
:100100006F937F938F939F93AF93BF93EF93FF93DF
:100110008CB1B3DFFF91EF91BF91AF919F918F9120
:100120007F916F915F914F913F912F910F900FBEF3
:100130000F901F901895DF92EF92FF920F931F93ED
:10014000CF93DF938CE187BB83E288BB81BB80E4E4
:1001500082BB12B888E089B988E98AB98EE083B990
:1001600091EA90BF82E083BF9FBD8EBD16BE1CBECC
:100170001BBC1ABC19BC18BC20ED37E048EC50E0A1
:10018000CA010197F1F721503040D1F77894E090FF
:100190006000F0906200009163001091610084E1C2
:1001A000D82EC0EDD7E0B09907C0EE2029F4809199
:1001B0006400882309F44CC0B09B07C0EE2029F0EE
:1001C00080916400882309F46EC0B19907C0FF20B4
:1001D00029F480916600882309F441C0B19B07C0CF
:1001E000FF2029F080916600882309F462C0B59948
:1001F00006C0002321F4809167008823C1F1B59BDC
:1002000007C0002329F080916700882309F43DC0CE
:10021000869906C0112321F480916500882371F12D
:10022000869B06C0112321F0809165008823A1F1EF
:10023000E4E6F0E08081882311F0815080833196DC
:1002400080E0E836F807B1F7CE010197F1F7ABCFC0
:10025000D092640061E03BDFEE24E394B6CFD0920D
:10026000660082E061E033DFFF24F394C0CFD092D8
:10027000670083E061E02BDF01E0CACFD092650028
:1002800081E061E024DF11E0D3CFD092670083E00A
:1002900060E01DDF00E0BCCFD092650081E060E04F
:1002A00016DF10E0C5CFD092640060E010DFEE24CE
:1002B0008CCFD092660082E060E009DFFF2497CF08
:0402C000F894FFCFE0
:00000001FF
